:020000040800F2
:10000000C8FB012061020008BF300008C52E0008AF
:10001000BD300008610B00088538000800000000B2
:10002000000000000000000000000000A101000826
:10003000630B000800000000FD01000815320008F5
:100040008502000885020008850200088502000874
:100050008502000885020008850200088502000864
:100060008502000885020008850200088502000854
:100070008502000885020008850200088502000844
:100080008502000885020008850200088502000834
:100090008502000885020008850200088502000824
:1000A0008502000885020008850200088502000814
:1000B00085020008850200083D320008850200081C
:1000C00085020008850200088502000885020008F4
:1000D00085020008FD370008850200084138000845
:1000E00085020008850200088502000885020008D4
:1000F00085020008850200088502000885020008C4
:1001000085020008850200088502000885020008B3
:1001100085020008850200088502000885020008A3
:100120008502000885020008850200088502000893
:10013000850200086D0C0008850200088502000891
:100140008502000885020008850200088502000873
:100150008502000885020008850200088502000863
:100160008502000885020008850200088502000853
:1001700085020008850200088502000800000000D2
:100180008502000885020008DFF810D000F03CFC72
:1001900000480047C7C90008AFF30080C8FB012032
:1001A0002C4B19680868B0E8F04F80F30988BFF35A
:1001B0006F8F4FF0000080F311887047000000003F
:1001C00008480068006880F308884FF0000080F35A
:1001D000148862B661B6BFF34F8FBFF36F8F00DF35
:1001E00000BF00BF08ED00E0DFF80C00016841F43B
:1001F00070010160704700BF88ED00E0EFF30980F7
:10020000BFF36F8F134B1A681EF0100F08BF20ED5D
:10021000108A20E9F04F106009B44FF0500080F3CD
:100220001188BFF34F8FBFF36F8F17F0D5F94FF0E1
:10023000000080F3118809BC19680868B0E8F04F25
:100240001EF0100F08BFB0EC108A80F30988BFF3CE
:100250006F8F7047D0020020EFF3058070470000D9
:100260000948016841F47001016008488047084866
:100270000047FEE7FEE7FEE7FEE7FEE7FEE7FEE7F4
:10028000FEE7FEE7FEE7000088ED00E02D32000803
:10029000890100082DE9F05F0546002092469B4643
:1002A00088460646814640241BE02846414647468C
:1002B000224600F087F953465A46C01A914110D39E
:1002C00011461846224600F06EF92D1A67EB010818
:1002D0004F4622460120002100F065F917EB000986
:1002E0004E41201EA4F10104DFDC484631462A4677
:1002F0004346BDE8F09F0000004870479CB90108E4
:100300000649074A0868504343F23902104408601E
:100310004008704701490860704700005003002002
:100320006D4EC64110B5431A934209D283188818FE
:1003300003E010F8011D03F8011D521EF9D210BD93
:1003400040EA01039B0703D009E008C9121F08C057
:10035000042AFAD203E011F8013B00F8013B521ED7
:10036000F9D210BDD2B201E000F8012B491EFBD238
:1003700070470022F6E710B513460A4604461946B0
:10038000FFF7F0FF204610BD421C10F8011B0029AA
:10039000FBD1801A704730B504460020034600E0C8
:1003A0005B1C934203D2E05CCD5C401BF8D030BDB7
:1003B00070B5064603F09CFA046805460A2200213F
:1003C000304600F00FF92C6070BD2DE9FE4F81EA38
:1003D000030404F0004421F0004100944FF0000BAE
:1003E00023F0004350EA01045ED052EA03045BD0DC
:1003F000C3F30A54C1F30A552C44A4F2F334019414
:10040000A0FB0254C1F3130141F48011C3F31303A1
:1004100043F4801301FB024400FB034E840A970A55
:1004200044EA815447EA8357A4FB076802958D0A82
:1004300005FB07854FEA932C04FB0C542705029D0E
:100440004FEA065847EA1637B5EB08056EEB070C7E
:10045000870E920E47EA811742EA8312A7FB020138
:10046000B6EB0B0164EB00042B0D43EA0C335E1872
:1004700044EB1C50DA465146E7FB0201C5F3130476
:100480004FEA0B3343EA14534FEA0432019C43EA28
:100490000603A4F10C040294009CCDE900B400F022
:1004A0001FF903B0BDE8F08F00200146F9E70EB553
:1004B000C10F80EAE0700844CA07002140F23343CC
:1004C0008DE80E000A460B4600F00AF903B000BDA5
:1004D0000EB540F2334102910021CDE900110A46E8
:1004E0000B4600F0FDF803B000BDC1F30A5210B591
:1004F000C1F3130140F2FF3341F480119A4201DA53
:10050000002010BD40F233439A42A2F2334203DC92
:10051000524200F057F810BD904010BD00F000426C
:1005200030F000400AD0C10D01F56071C0F3160033
:1005300042EA0151C20840071143704700200146BA
:10054000704701F0004330B421F0004150EA01024D
:1005500006D00A0DA2F56072C1F31301002A02DC75
:1005600030BC00207047440F44EAC104C100E018C9
:1005700030BC00EBC25000F06DB830B50B46014600
:1005800000202022012409E021FA02F59D4205D332
:1005900003FA02F5491B04FA02F52844151EA2F1DC
:1005A0000102F1DC30BD202A04DB203A00FA02F11E
:1005B000002070479140C2F1200320FA03F3194351
:1005C00090407047202A04DB203A21FA02F00021F3
:1005D000704721FA02F3D040C2F120029140084353
:1005E000194670472DE9F04791460F46804604466C
:1005F000002614F8015B2DB1FFF77EFE0068405D18
:10060000C007F6D12B2D02D02D2D18D0641E4A46DE
:100610003946204600F01CFA27B13968A14201D1C1
:10062000C7F8008071054FF002040BD54042002846
:1006300003DD03F05DF90460A007BDE8F08746F430
:100640008066E4E70028F8DA03F052F904606FF0FE
:100650000040F2E70029A8BF7047401C490008BFCE
:1006600020F00100704710B4B0FA80FC00FA0CF0E2
:1006700050EA010404BF10BC704749B1CCF120041A
:1006800021FA04F411FA0CF118BF012121430843A7
:10069000A3EB0C01CB1D4FEA00614FEA102042BFD3
:1006A000002010BC704700EBC35010440029A4BFC9
:1006B00010BC7047401C490008BF20F0010010BC6E
:1006C000704710B5141E73F1000408DA401C41F1A4
:1006D000000192185B411A4301D120F0010010BDC6
:1006E0002DE9F04D92469B4611B1B1FA81F202E03C
:1006F000B0FA80F220329046FFF755FF04460F46CD
:1007000040EA0A0041EA0B0153465A46084313D017
:10071000114653EA010019D0C8F140025046FFF7D4
:1007200051FF05460E46504659464246FFF73BFFED
:10073000084305D0012004E020463946BDE8F08D8D
:100740000020054346EAE0762C4337430A986305C8
:10075000E40AA0EB08000022FD0A44EA47540A30EC
:1007600002D500200146E9E7010510196941DDE9DC
:10077000084500196941BDE8F04DA2E72DE9FE4F9B
:10078000804681EA0300C00F0C46009021F0004132
:1007900023F00045B8EB0200A94105D240462146AE
:1007A00090461C460B46024623F00040104347D0BB
:1007B000270DC7F30A00C3F30A510290401A0190B3
:1007C00040286BDAC3F3130040F4801B0098924674
:1007D00020B10023D2EB030A63EB0B0B01985946BF
:1007E000C0F140025046FFF7DEFE06460D46504679
:1007F0005946019A00F01AF910EB080061410024F3
:1008000087EA115284EAE7731A4340D0009A62B330
:10081000019A012A4FEA075215DC001B61EB020125
:100820004FF0004202EA0752CDE90042001C41F5B8
:10083000801132462B46FFF753FF03B0BDE8F08F1F
:1008400040462146F9E7001B61EB0201001C41F51F
:10085000801300185B412018A2F5001747EB030135
:1008600040EAD570B6196D4111E06D084FEA3606C1
:1008700045EAC0754FEA0752001B61EB0201001CFC
:1008800041F5801149084FEA3000001951413246C4
:100890002B4603B0BDE8F04FFFF713BF00980122CD
:1008A00040000023D0EB020263EBE0730098214686
:1008B0004FEAE074B8EB000061EB0401E9E783F074
:1008C00000435BE781F0004158E72DE9F04D81EAF4
:1008D000030404F0004B21F0004514464FF0000AD9
:1008E00023F0004150EA050220D054EA01021DD055
:1008F000C5F30A570246C5F31303C1F31300C1F34E
:100900000A5640F4801543F48013A7EB0608101B29
:10091000D64608F2FD3873EB050002D308F1010852
:1009200001E092185B41B8F1000F03DA00200146A4
:10093000BDE8F08D00204FF48011064684460EE09D
:10094000171B73EB050705D3121B63EB0503064367
:100950004CEA010C49084FEA300092185B4150EA1A
:100960000107EDD152EA030012D082EA040083EAC3
:100970000501084305D0101BAB4106D2012200231C
:1009800006E000224FF0004302E06FF00102531036
:100990001AEB06004CEB085110EB0A0041EB0B017F
:1009A000BDE8F04DFFF78DBEC1F30A52C1F313014C
:1009B00040F2FF3341F480119A4202DA00200146EE
:1009C000704740F233439A42A2F2334202DC524271
:1009D000FFF7F8BDFFF7E7BD30B5041E71F1000465
:1009E00004DB4FF00044404264EB0101141E73F13C
:1009F000000405DB1C464FF00043524263EB040346
:100A0000994208BF904230BD064C074D06E0E068B1
:100A100040F0010394E8070098471034AC42F6D345
:100A2000FFF7B6FB94BC0108B4BC0108202A06DB22
:100A3000CB17203A41FA02F043EAE07306E041FAAC
:100A400002F3D040C2F1200291400843194670479A
:100A50002DE9F05F82460078002715468B460AF1A3
:100A60000104B946302801D09DB113E014F8010B00
:100A70000127782803D0582801D045B10AE00DB1EC
:100A8000102D07D10027102514F8010B02E00825CE
:100A900000E00A250026B0460EE005FB080005FB35
:100AA00006F1012701EB10461FFA80F8B6F5803FEA
:100AB00000D3B94614F8010B294600F018F80028B5
:100AC000EBDABBF1000F05D00FB1641E00E0544615
:100AD000CBF80040B9F1000F06D002F009FF022167
:100AE0000160C81EBDE8F09F48EA0640FAE73A28D0
:100AF00000D2303820F02002412A01D3A2F1370081
:100B0000884201D34FF0FF30704770B58C1810F851
:100B1000015B15F0070301D110F8013B2A1106D142
:100B200010F8012B03E010F8016B01F8016B5B1E5C
:100B3000F9D12B0705D40023521E0DD401F8013B37
:100B4000FAE710F8013BCB1A921C03E013F8015BA3
:100B500001F8015B521EF9D5A142D8D3002070BD27
:100B6000FEE770470321014802F0BABA38000020BE
:100B700010B502F0A5FA0446002C1FD00A22214627
:100B80000F480FF00FFC0C2221460E480FF00AFC14
:100B9000122221460C480FF005FC182221460B4872
:100BA0000FF000FC1C22214609480FF0FBFB2146F8
:100BB000BDE810404A2207480FF0F4BB10BD00000A
:100BC0006C0000206E0000207000002072000020E9
:100BD0007400002076000020006800F580508169D4
:100BE00021F0020181617047006800F58050816941
:100BF00041F0020181617047006800F58050816911
:100C000021F4005181617047006800F580508169CE
:100C100041F400518161704708B507494FF4FA5219
:100C20000968B1FBF2F14143009100BF0098411EF9
:100C30000091FAD208BD00000000002038B504463B
:100C4000206800F58050816941F48011816120683D
:100C500000F58050806900900120FFF7DDFF2068DB
:100C6000009900F58050816138BD000010B5084C36
:100C7000A06A05F024FD08B10BF0ECF820684FF4F1
:100C8000803100F5805041614021416110BD00007C
:100C9000700500201079537940EA0323074808447F
:100CA00003641178D37841EA0361937852781B0486
:100CB00043EA022211434164704700000080024071
:100CC0002DE9F041AEB00446002904D04FF4006095
:100CD000E060C000A0600025119512951395149551
:100CE00015951695E06900287DD017954FF4007092
:100CF000189019951A951B951C951D9540271E97C0
:100D00001F95209521952295239524952595269527
:100D100080262796289529952A952B952C952D95F3
:100D20002068026845490A40D4E902131943179B19
:100D3000194341F40071114301602068D0F800802C
:100D4000012000F08BF92068C0F80080206847601F
:100D500020684768012000F081F92068476020681A
:100D600085602068C560206881694FF64172114036
:100D700041F08001816120688769012000F06EF9EF
:100D8000206887612068C5612068C769012000F07C
:100D900065F92068C7610195B004029003950111BF
:100DA00004910595069507950895042109910A90E7
:100DB00040120B9080010C9040120D900E960F95F2
:100DC0001095206800F5805081691D4A11401D4A28
:100DD0000A438261206800F580508569012000F097
:100DE0003DF9206800E016E000F58050856120683C
:100DF000154900F580500160206800F580500568B5
:100E0000012000F02BF9206800F580500560A069F2
:100E1000012804D00AE04FF48060179066E720684C
:100E200000F58050C169094A1143C16162692EB061
:100E30002046BDE8F0410021FFF72CBF0F8120FFC5
:100E4000233FDEF8040020028020C10240000100A0
:100E500038B504462068016821F00401016020686B
:100E6000006800900120FFF7D7FE21680098086015
:100E700038BD38B504462068016841F004010160BE
:100E80002068006800900120FFF7C6FE21680098E6
:100E9000086038BD38B504462068016821F00801B3
:100EA00001602068006800900120FFF7B5FE21680E
:100EB0000098086038BD38B504462068016841F0E4
:100EC000080101602068006800900120FFF7A4FE7F
:100ED00021680098086038BD70B5B3F5804F05D023
:100EE0006FF0704140F82210002070BD50F82230A1
:100EF000084C2340D1E9004544EA05148D688E89E9
:100F00002D0245EA064589692C430C431C4340F8F1
:100F10002240E9E70000F0CFF0B50C6850F824500B
:100F2000114A1540D1E90123D1E903671A433E4331
:100F300032434E6932438E693243CE6932430E6A80
:100F400032434E6A32438E6A3243CE6A3243CE6BAC
:100F5000096B32430A432A43082B01D142F0400275
:100F600040F824200020F0BD8000F0FF70B5521C36
:100F700050F8223003F04043D1E9004544EA05141B
:100F80008D688E892D0245EA06452C430D8A6D1E1B
:100F900044EA05550C7D8969A41E45EA04640C43A6
:100FA0001C4340F82240002070BD2DE9F04104466A
:100FB000A76D00F059FD054694F83500002602287B
:100FC00006D08020606584F834600120BDE8F0819F
:100FD0002068016821F0160101602068416921F054
:100FE00080014161206C08B9A06C20B120680168C3
:100FF00021F0080101602068016821F00101016011
:101000000BE000F031FD401B052806D920203434C8
:101010002062267003206070D8E720680068C0074F
:10102000EFD134343F2094F828108840B8602670FF
:10103000012060700020C9E790F83510022903D024
:101040008021416501207047052180F83510006836
:10105000016821F0010101600020704770B504466D
:1010600000F002FD0546601C02D0044800780444EC
:1010700000F0FAFC401BA042FAD370BD40000020F3
:10108000F0B5002490F84550012D09D0012780F8D3
:101090004570022580F84450816244F2F45C19E006
:1010A0000220F0BD01EB44154FF000462E60C5F85C
:1010B00004C0C4EBC41606EB460602EB8606AE601F
:1010C00086695E1EB44203D205F12006EE6000E0A0
:1010D000E960641C9C42E5D3026802F58052D1604D
:1010E00080F84470002180F845100020F0BD2DE903
:1010F000F043002590F84540012C0BD04FF0010C37
:1011000080F845C0022480F84440C1624FF4801842
:101110005F1E1CE00220BDE8F08301EB4514C4F81B
:101120000080C5EBC51606EB460602EB8606A660F8
:10113000C66926B9266846F44009C4F80090BD4245
:1011400003D204F12006E66000E0E1606D1C9D42E0
:10115000E3D3026802F58052116180F844C0002197
:1011600080F845100020D6E710B590F84510012909
:1011700013D0012380F84530022180F84410816AA1
:101180000A680024002A29DB0A68D20518D5826B78
:10119000521C8263012A02D002E0022010BD0163CA
:1011A0002830C1600A68C2F30D42121F4261826892
:1011B00092688261C968016003774477002010BD9E
:1011C0000A68920505D5016344638363C968816237
:1011D00004E0826B521C8263C968816200F8443F5C
:1011E0004470012010BD00002DE9FC4704464FF07B
:1011F0000008CDF80480C146002C03D094F84400C8
:1012000018B107E00120BDE8FC8784F8458020463E
:1012100000F008F97948016841F4804101600068F4
:1012200000F4804000907648016821F400010160DC
:101230000168226A11430160206800F5805001684E
:1012400041F00101016000F00FFC05464FF4FA7611
:101250000AE000F009FC401BB04205D9032084F8E5
:10126000440084F84580CEE7206800F5805000688F
:10127000C007EED12068006920F01C0500F024FDB5
:101280006049614A0144914202D245F0080516E0E6
:101290005E495F4A0144914202D245F00C050EE0DE
:1012A0005C495D4A0144914209D35C4908445C4968
:1012B000884202D245F0040501E045F0100520689F
:1012C00005614FF400420021204600F091FA01250B
:1012D00038B101212046FFF7F3FC84F84450012087
:1012E00091E7FF20FFF7BAFE6068E0B300F0BCFBB7
:1012F000074641F2883601AA0121204600F06AF92A
:1013000000F0B2FBC01BB04209D901212046FFF713
:10131000D7FC84F8445084F84580032073E7019893
:101320004007E8D54FF480520021204600F060FAD3
:1013300038B101212046FFF7C3FC84F84450012056
:1013400061E700F091FB074601AA0121204600F069
:1013500041F900F089FBC01BB0420BD901212046A6
:10136000FFF7AEFC00E028E084F8445084F84580A4
:10137000032048E701988006E6D501AA1F212046F0
:1013800000F028F938B101212046FFF799FC84F8D4
:101390004450012037E70198C10603D54FF400619E
:1013A000E16001E0C4F80C80400702D5C4F8088071
:1013B0001BE04FF48040A06017E0E0680021C0F31C
:1013C000CF02A068C0F34F000243204600F010FA9D
:1013D00038B101212046FFF773FC84F84450012006
:1013E00011E740F6FF70FFF739FE49462046FFF748
:1013F00067FC84F84450002005E7000044380240B0
:101400000438014000D3CEFEC0E1E40040F1E9FD24
:1014100040787D0100796CFC005A6202001F0AFAD4
:1014200080F0FA02F0B587B000256548016841F008
:1014300001010160016801F001010191016841F0C1
:1014400001010160016801F001010191016841F0B1
:1014500001010160016801F001010191016841F0A1
:1014600004010160016801F004010191016841F08B
:1014700004010160016801F004010191016841F07B
:1014800004010160016801F004010191016841F06B
:1014900040010160016801F040010191016841F0E3
:1014A00040010160016801F040010191016841F0D3
:1014B00040010160016801F040010191016841F4BF
:1014C00080710160016801F480710191016841F04F
:1014D00000710160016801F000710191016841F043
:1014E00080610160016801F080610191016841F053
:1014F00000610160006800F0006001900224029425
:1015000003940495032605960B2006902D4F02A9FF
:10151000384600F0ABF90421029102A9384600F0E8
:10152000A5F98021029102A9384600F09FF90294A2
:10153000254C02A9204600F099F91021029102A938
:10154000204600F093F92021029102A9204600F0E4
:101550008DF9E01402901D4C02A9204600F086F996
:101560004FF40051029102A9204600F07FF94FF498
:101570008041029102A9204600F078F908200290EB
:101580000120039004950596114C02A9204600F015
:101590006DF900220821204600F058FA322002F0AE
:1015A000ABFF01220821204600F050FA002206215C
:1015B0003D2000F0B1FA3D2000F0A1FA07B0F0BDE7
:1015C000303802400000024000080240001802408B
:1015D000000C02402DE9F0470446914694F844007F
:1015E00082281DD0822084F844002068026902F01D
:1015F0001C03228A4FF6FF7505EAC2221A434FF4F4
:10160000F86303EA8111114321F0020141F0010561
:10161000056100F029FA064601274FF480380FE0F3
:101620000220BDE8F08700F01FFA801B404505D37B
:1016300004F8447F002060700320F2E72068056909
:10164000E807F0D12068406980B2C9F8000084F84A
:1016500044700020E5E770B5044694F84500012881
:1016600019D0012584F84550022084F84400204612
:10167000FFF721FC2046FFF7FCFB2046FFF7DEFAD0
:101680002046FFF7C1FA2046FFF7AEFA04F8445FA0
:101690000020607070BD022070BD70B5044694F8E3
:1016A0004500012819D0012584F84550022084F80E
:1016B00044002046FFF7A0FA2046FFF78DFA2046A7
:1016C000FFF7C6FB2046FFF7B9FA2046FFF7E2FB1B
:1016D00004F8445F0020607070BD022070BDF0B55A
:1016E000002390F84520012A11D0012780F8457089
:1016F000022280F84420002659B1C46A2268002AD8
:101700000CDA122100F8441F46700120F0BD0220BF
:10171000F0BD00F8447F46700120F0BD40F2F45562
:10172000A9420AD9B1FBF5F2B1FBF5FC05FB1C1C83
:10173000BCF1000F02D0521C00E00122012A44D16A
:10174000226842F040522260C26AC1F30C0151602B
:10175000C16A0A6842F000420A60C16AC968C1628F
:1017600035E0C46AD4F800C02CF0405CC4F800C076
:1017700033B9C46AD4F800C04CF0805CC4F800C02F
:10178000C46A6560541EA34214D1C46AD4F800C070
:101790004CF0005CC4F800C0C2F10104C4EBC414F6
:1017A00004EB440401EB8404D0F82CC0C4F30C0413
:1017B000CCF80440C46AD4F800C04CF0004CC4F823
:1017C00000C0C46AE468C4625B1C9342C9D3016868
:1017D00001F580514A69520705D504224A61016822
:1017E00001F580514E6000F8447F46700020F0BD46
:1017F0002DE9F041044694F84400422820D04220CC
:1018000084F844002068036903F01C03258A4FF61E
:10181000FF7606EAC5251D434FF4F86303EA8111FC
:10182000294341F0020141F0010591B24161206874
:10183000056100F019F9064601274FF480380FE0E2
:101840000220BDE8F08100F00FF9801B404505D370
:1018500004F8447F002060700320F2E720680569E7
:10186000E807F0D184F84470EBE700002DE9F84F69
:101870000022DFF89C914FF0010809F1040A0327C8
:101880004FF00F0C0AF1040B08FA02F50B682B401D
:10189000AB4272D10C7904F00304012C01D0022C6C
:1018A00015D18668540007FA04FE26EA0E06D1F820
:1018B0000CE00EFA04FE4EEA060EC0F808E044689A
:1018C000AC430D79C5F300159540254345600C796F
:1018D000E443A40708D0C568540007FA04F6B543EA
:1018E0008E68A6402E43C6600C7904F00304022CD7
:1018F00011D1D40800EB8406356A5407E40E0CFAC3
:1019000004FE25EA0E05D1F810E00EFA04FE4EEAB8
:10191000050EC6F820E00568540007FA04F6B54342
:101920000E7906F00306A6402E4306604C68E400DC
:1019300067D5384C256845F480452560246804F453
:1019400080440094344C22F003052E19D6F8085830
:1019500094074FEA147E0CFA0EF4A5432F4CA042D4
:1019600001D1002424E02E4CA04201D101241FE02B
:101970002C4CA04202D102241AE042E02A4CA042A0
:1019800001D1032414E0294CA04201D104240FE02A
:10199000274CA04201D105240AE0264CA04201D1E7
:1019A000062405E0244CA04201D1072400E00824CD
:1019B00004FA0EF42C43C6F80848D9F800409C43BA
:1019C0004D68ED0300D51C43C9F80040DAF800402B
:1019D0009C434D68AD0300D51C43CAF80040DBF8BA
:1019E00000409C434D68ED0200D51C43CBF80040FD
:1019F000074D0C352C689C434E68B60200D51C433D
:101A00002C60521C102AFFF43FAFBDE8F88F000095
:101A1000003C0140443802400030014000000240D8
:101A20000004024000080240000C02400010024086
:101A30000014024000180240001C0240426921EAE2
:101A400002030A4043EA024181617047002A01D043
:101A50008161704709048161704700000148006896
:101A6000000C7047002004E00148806870470000C7
:101A7000400000200248816802781144816070476C
:101A80004000002010B50B48016841F4007101606E
:101A9000016841F480610160016841F48071016076
:101AA000032000F059F80F2000F006F800F026F8A7
:101AB000002010BD003C024070B504460D4D4FF4AF
:101AC0007A712878B1FBF0F00B490968B1FBF0F0AE
:101AD00000F0FCFD08B1012070BD102C07D20022DF
:101AE0002146501E00F018F86C60002070BD0120E7
:101AF00070BD00004000002000000020704700285A
:101B000009DB00F01F02012191404009800000F133
:101B1000E020C0F800117047F0B40D460D4B1B6873
:101B2000C3F30223C3F10704042C00D90424191DB4
:101B3000072901D2002300E0DB1E012606FA04F18A
:101B4000491E294099409E40761E16403143F0BC04
:101B500001F0BEBE0CED00E000F00701054A106880
:101B60004FF6FF03184040EA012003490843106084
:101B7000704700000CED00E00000FA052DE9F04789
:101B800004460D46002C13D0DFF82891D9F8000048
:101B9000EFB200F00700A8420CD289F80070D9F823
:101BA000000000F00700A84204D00120BDE8F08743
:101BB0000120FBE72068404E810712D5400703D57E
:101BC000306840F4E05030602078000703D530687A
:101BD00040F4604030603068A16820F0F0000843B5
:101BE00030602078C00731D0334960680839012857
:101BF00008D002280BD0032809D0096889070BD424
:101C00000120D3E70968890306D40120CEE70968DB
:101C1000890101D40120C9E7316821F003010143A2
:101C20003160FFF721FF804641F2883A07E0FFF775
:101C30001BFFA0EB0800504501D90320B6E7306830
:101C4000616800F00C00B0EB810FF0D1D9F8000012
:101C500000F00700A84209D989F80070D9F80000FF
:101C600000F00700A84201D001209FE7207840073C
:101C700005D53068E16820F4E050084330602078F2
:101C8000000706D53068216920F4604040EAC100B1
:101C9000306000F03FF83168084AC1F30311515C2D
:101CA000C8400749086007480068FFF705FF0020A3
:101CB0007CE70000003C02400838024064870108CD
:101CC0000000002044000020014800687047000028
:101CD0000000002000B5FFF7F7FF04490968044A37
:101CE000C1F38221515CC84000BD000008380240A9
:101CF0007487010800B5FFF7E7FF04490968044A43
:101D0000C1F34231515CC84000BD000008380240B8
:101D10007487010810B51748006810F00C011648C8
:101D200016D04310042912D0082911D1114C241FB8
:101D3000216801F03F02216849020AD52068C0F3FA
:101D40008810A0FB03010023FEF7A4FA09E018465F
:101D500010BD21680023C1F38811A1FB0001FEF72B
:101D600099FA2168C1F30141491C4900B0FBF1F027
:101D700010BD0000083802400024F4002DE9F84F9F
:101D80000446002C13D02078DFF8A083C007A8F108
:101D9000040556D008F104000168C1F3810101294E
:101DA0000CD00068C0F38100022803D00DE00120B0
:101DB000BDE8F88FD8F80000400206D528688003F7
:101DC0003FD5606870BB0120F2E76068B0F5803FE6
:101DD00010D0B0F5A02F12D0286820F480302860F1
:101DE000286820F4802028606068E0B1FFF73CFE9E
:101DF000064614E0286840F480302860F4E728683C
:101E000040F480202860286840F480302860EBE7A8
:101E1000FFF72AFE801B642801D90320C8E7286841
:101E20008003F5D50DE0FFF71FFE064606E0FFF73D
:101E30001BFE801B642801D90320B9E728688003B2
:101E4000F5D42078BA4F80074FF0000948D5B7483D
:101E5000001D016811F00C0F08D00068C0F381006C
:101E6000022813D1D8F8000040020FD42868800758
:101E700004D5E068012801D0012099E7286821698C
:101E800020F0F80040EAC100286029E0E068B8B11D
:101E900001203860FFF7E8FD064606E0FFF7E4FDA5
:101EA000801B022801D9032082E728688007F5D526
:101EB0002868216920F0F80040EAC10028600FE09E
:101EC000C7F80090FFF7D0FD064606E0FFF7CCFD0F
:101ED000801B022801D903206AE728688007F5D40F
:101EE0002078000729D5DFF844A2924861690AF1F9
:101EF000700A89B101210160FFF7B6FD064606E0D0
:101F0000FFF7B2FD801B022801D9032050E7DAF861
:101F100000008007F4D510E0C0F80090FFF7A4FDA2
:101F2000064606E0FFF7A0FD801B022801D903202A
:101F30003EE7DAF800008007F4D42078400778D52F
:101F40004FF0000A79483C300068C0000BD4774855
:101F50003C30016841F080510160006800F0805021
:101F600000904FF0010ADFF8D0B1DBF80000C005A7
:101F700014D4DBF8000040F48070CBF80000FFF7C9
:101F800073FD064606E0FFF76FFD801B022801D9AE
:101F900003200DE7DBF80000C005F4D5634EA06810
:101FA0006C3601280FD0052812D0306820F00100CF
:101FB0003060306820F004003060A068F8B1FFF7AE
:101FC00053FD834617E0306840F001003060F4E7CD
:101FD000306840F004003060306840F0010030604C
:101FE000EBE7FFF741FDA0EB0B0141F288308142A6
:101FF00001D90320DCE630688007F2D510E0FFF756
:1020000033FD834609E0FFF72FFDA0EB0B0141F202
:102010008830814201D90320CAE630688007F2D4B3
:10202000BAF1010F05D141483C30016821F08051DF
:102030000160A069C0B33D49091D09684FF0FF3632
:10204000C1F38101022946D0022805D0C7F860906B
:10205000FFF70AFD04463AE0C7F86090FFF704FD79
:10206000814607E0FFF700FDA0EB0900022801D937
:1020700003209DE628688001F4D4D4E907010843D1
:10208000616AA26A890106EB520241EA02410843F1
:1020900094F82C1040EA0160C8F80000012038666E
:1020A000FFF7E2FC044607E03DE0FFF7DDFC001B24
:1020B000022801D903207BE628688001F5D532E0AB
:1020C000FFF7D2FC001B022801D9032070E6286824
:1020D0008001F5D427E0012823D0D8F80000E26978
:1020E00000F4800191421AD1226A00F03F0191422E
:1020F00015D147F6C071626A0140B1EB821F0ED163
:10210000A26A00F4403106EB5202B1EB024F06D155
:1021100094F82C1000F07060B0EB016F03D0012038
:1021200046E6012044E6002042E600000438024072
:1021300000004742800E47420070004070B50446E0
:10214000002C0AD0606A002548B1256165614FF412
:10215000005694F8510040B10CE0012070BD606859
:10216000B0F5827FF3D0E561F1E784F85050204666
:1021700000F04CF8022084F851002068016821F03A
:1021800040010160A088218900F4827001F40441BB
:102190000843A18901F400610843217C01F0020198
:1021A0000843217D01F001010843218B01F40071F6
:1021B0000843217F01F03801084394F8201001F012
:1021C00080010843218D01F4005108432168086013
:1021D000A069042101EA104094F8241001F01001D4
:1021E000084321684860A06AB04203D1A08D2168ED
:1021F00080B208612068C16921F40061C161656530
:10220000012084F85100002070BD00002DE9F04F3E
:1022100087B005464E4928684E4E02240127DFF854
:1022200038A14FF00508884247D1306840F00100DE
:102230003060306800F001000190306840F001002B
:102240003060306800F001000190306840F001001B
:102250003060306800F001000190306840F002000A
:102260003060306800F0020001904FF02009CDF896
:102270000890039404970594CDF81880DFF8DCB03B
:1022800002A95846FFF7F2FACDF8089002A9504685
:10229000FFF7ECFA4020029002A95846FFF7E6FA51
:1022A000102002900397059402A95846FFF7DEFA22
:1022B000012210215846FFF7C9FB294928688842A6
:1022C00043D1306840F002003060306800F0020016
:1022D0000190306840F002003060306800F0020089
:1022E0000190306840F004003060306800F0040075
:1022F0000190306840F004003060306800F0040065
:10230000019048140290039404970594CDF8188026
:1023100002A95046FFF7AAFA08210291114C02A91E
:102320002046FFF7A3FA0421029102A92046FFF7F5
:102330009DFAA4140294039702A95046FFF796FA57
:10234000012221465046FFF781FB07B0BDE8F08F20
:1023500000300140303802400004024000000240DA
:1023600000380040000802402DE9FF4F83B00446CA
:10237000109E8A4698464FF0000BCDF808B0012514
:10238000002794F8500001280ED0012084F8500056
:10239000FFF76AFB814694F85100616801280DD06F
:1023A000B1F5827F08D103E0022007B0BDE8F08FCD
:1023B000A16809B9042801D002270CE1BAF1000F85
:1023C0003FD00598E0B35FEA08003AD094F8510096
:1023D000042802D0052084F85100C4F854B00598B0
:1023E000A063A4F83E80A4F83C80C4F830A0A4F810
:1023F0003680A4F83480C4F840B0C4F844B0A06A71
:102400004FF4005A504509D12068016821F4005169
:1024100001602068016841F4005101602068016892
:10242000490603D4016841F040010160E068B0F55D
:10243000006F08D06068E8B3B8F1010F52D091E0A6
:10244000FFE70127C7E0606810B1B8F1010F42D182
:10245000206B21680088C860206B801C2063E08EA0
:10246000401EE08637E020688168890717D5E18E35
:10247000A9B1012D13D1216B0988C160206B801C8B
:102480002063E08E401EE0860025E08E38B9A06A09
:10249000504504D12068016841F4805101602068F2
:1024A0008168C9070DD0E18F59B1C068A16B088060
:1024B000A06B00E016E0801CA063E08F401EE08768
:1024C0000125FFF7D1FAA0EB0900B04203D3701C3D
:1024D00001D003277FE0E08E0028C4D1E08F0028E0
:1024E000C1D145E0206B216800780873206B401C47
:1024F0002063E08E401EE08634E020688168890712
:1025000017D5E18EA9B1012D13D1216B0978017383
:10251000206B401C2063E08E401EE0860025E08E8C
:1025200038B9A06A504504D12068016841F480514F
:10253000016020688168C9070BD0E18F49B1C0688C
:10254000A16B0870A06B401CA063E08F401EE08769
:102550000125FFF789FAA0EB0900B04201D3701CF6
:1025600018D1BEB1E08E0028C7D1E08F0028C4D1B9
:10257000A06A504513D10122334611462046CDF8BA
:10258000009000F0E9FD38B1606D40F00200606538
:10259000032720E003271EE02068C068029020681F
:1025A0008168C90607D5616D41F0020161654FF68A
:1025B000EF71816001274A463146204600F09EFDBA
:1025C00018B101272020606505E0A06818B92068CF
:1025D000C16880680190012084F8510084F850B0EF
:1025E0003846E2E670B504460E461546002C03D088
:1025F00094F8490010B107E0012070BD002084F874
:102600004800204600F01AF804F108012068FEF79F
:1026100083FC3146A2682068FEF7A8FCD4E90102D9
:102620002946236BFEF758FCA168206850F821204A
:1026300042F0010240F82120002070BD00B587B0B3
:102640001848016841F001010160006800F00100D4
:10265000019014480838016841F0080101600168E0
:1026600001F008010191016841F01001016000686A
:1026700000F0100001904CF20370029002200390D1
:102680000121049105900C20069002A90648FFF74D
:10269000EDF84FF68070029002A90448FFF7E6F8C3
:1026A00007B000BD38380240000C02400010024064
:1026B0004FF0E021042804D0086920F004000861EC
:1026C0007047086940F004000861704710B5401E6B
:1026D000B0F1807F01D3012010BD4FF0E024606194
:1026E0000F21601701F0F4F80020A061072020619D
:1026F000002010BD10B50446002C03D094F83D0016
:1027000010B107E0012010BD002084F83C002046F5
:1027100000F015F8022084F83D00211D206800F02B
:10272000C9FD01203D3460726070A070E0702071BE
:102730006071A071E07120722070002010BD7047A0
:1027400090F83D10012901D001207047022180F846
:102750003D100168CA6842F00102CA60006814496D
:10276000884214D0B0F1804F11D0124988420ED067
:10277000114988420BD01149884208D0104988423B
:1027800005D01049884202D00F49884209D181689A
:1027900001F00701062908D0016841F0010101603C
:1027A00003E0016841F00101016000207047000072
:1027B000000001400004004000080040000C004000
:1027C00000040140004001400018004070B504467C
:1027D0000D4694F83C0001280AD0012084F83C0002
:1027E00042B1042A1AD0082A2DD00C2A53D13EE037
:1027F000022070BD2946206800F0D0FD2068816964
:1028000041F0080181612068816921F00401816142
:10281000206881692A69114381613CE0294620686A
:1028200000F0F0FD2068816941F400618161206859
:10283000816921F480618161206881692A6941EAA6
:102840000221816127E02946206800F015FE2068FA
:10285000C16941F00801C1612068C16921F004012A
:10286000C1612068C1692A691143C16113E0294629
:10287000206800F039FE2068C16941F40061C1613F
:102880002068C16921F48061C1612068C1692A6939
:1028900041EA0221C161002084F83C0070BD10B5FE
:1028A0000446002C03D094F83D0010B107E001204D
:1028B00010BD002084F83C00204600F015F80220EE
:1028C00084F83D00211D206800F0F4FC01203D3417
:1028D00060726070A070E07020716071A071E07132
:1028E00020722070002010BD00B587B0104801682C
:1028F00041F480310160006800F4803001900C48A0
:102900001438016841F010010160006800F0100007
:1029100001904020029002200390012004900320A7
:102920000590069002A90348FEF7A0FF07B000BD7E
:10293000443802400010024010B50446002909D076
:1029400004290AD008290BD094F8410001280AD0A4
:10295000012010BD94F83E00F8E794F83F00F5E739
:1029600094F84000F2E70220A9B3042937D00829DF
:1029700038D084F841000122206800F001FD1E4992
:1029800020681E4A884201D0904203D1436C43F430
:10299000004343642068884213D0B0F1804F10D0C8
:1029A000174988420DD0174988420AD016498842F3
:1029B00007D0904205D01549884202D01449884278
:1029C00013D1816801F00701062912D0016841F096
:1029D000010101600DE0FFE784F83E00CBE784F8D9
:1029E0003F00C8E784F84000C5E7016841F00101F5
:1029F0000160002010BD0000000001400004014003
:102A00000004004000080040000C0040004001406D
:102A10000018004070477047014611F83D0F497893
:102A200008437047F8B5044622681068D1685369B6
:102A300000F00F05002D08D1860606D58E0604D5B8
:102A40002046BDE8F84000F0ACBD0026002D60D067
:102A500003F0010501F490772F435AD0C20705D047
:102A6000CA0503D5226C42F001022264420705D553
:102A7000DA0703D0226C42F002022264820705D5F5
:102A8000DA0703D0226C42F004022264020707D561
:102A900001F020022A4303D0226C42F00802226493
:102AA000226C002A2BD0800604D5880602D5204649
:102AB00000F077FD20684069C0F38010216C0907A1
:102AC00000D408B3204600F047FD2068416949065C
:102AD00016D5416921F040014161A06B60B14449C4
:102AE0000165A06BFEF7A8FA002808D0A06B016D65
:102AF00001B0BDE8F04008472046FFF78CFFF8BD65
:102B00002046FFF788FFF8BD2046FFF784FF2664C4
:102B1000F8BD236B012B58D1C30656D5CB0654D52F
:102B200010685068009050694FF0200340062ED581
:102B3000A16B0868406880B20028E9D0A58D854265
:102B4000E6D9E085C869B0F5807F18D0D06820F458
:102B50008070D0602068416921F0010141612068E6
:102B6000416921F04001416184F83E3026632068CC
:102B7000C16821F01001C160A06BFEF716FAA08DAC
:102B8000E18D401A81B22046FFF744FFF8BDA08DC9
:102B9000E18D401A81B2E08D0028F7D00029F5D0F0
:102BA000D06820F49070D0602068426922F0010261
:102BB000426184F83E3026632068C26822F0100229
:102BC000C2602046FFF726FFF8BD020606D50A06BA
:102BD00004D52046BDE8F84000F0E1BD4006F3D53D
:102BE0004806F1D52046BDE8F84000F0CDBC000015
:102BF0004935000870B50446002C04D094F83D0017
:102C0000002510B106E0012070BD84F83C5020463C
:102C100000F022F8242084F83D002068C16821F4E7
:102C20000051C160204600F015FD2068016921F4C3
:102C3000904101612068416921F02A0141612068C9
:102C4000C16841F40051C1602564202084F83D0032
:102C500084F83E00002070BD2DE9F04786B005469F
:102C60003E492868884275D13D49086840F0100007
:102C70000860086800F010000090394C143C20688F
:102C800040F001002060206800F001000090206802
:102C900040F001002060206800F00100009048151D
:102CA0000190022702974FF00108CDF80C8004979D
:102CB00007260596DFF8ACA001A95046FEF7D6FD21
:102CC0004FF48069CDF80490059601A95046FEF7AF
:102CD000CDFD2520FEF713FF002203212520FEF75E
:102CE0001BFF21492868884234D11D48001F016814
:102CF00041F480210160006800F480200090206889
:102D000040F002002060206800F00200009020687F
:102D100040F002002060206800F002000090CDF832
:102D200004900297CDF80C80049705960F4C01A9EA
:102D30002046FEF79BFDE1140191059601A920466E
:102D4000FEF794FD2720FEF7DAFE00220721272058
:102D5000FEF7E2FE06B0BDE8F0870000001001407B
:102D60004438024000000240004800400004024095
:102D700090F83E30202B01D00220704759B152B15B
:102D800090F83C30012B08D0012380F83C30002320
:102D9000036300F0E9BC0120704702207047000087
:102DA000F8B5304A016800242F4B91421BD1998815
:102DB0000A0418D403F101024D04127807D50A2A37
:102DC00001D09C800FE041F4004199800BE00D2A76
:102DD00028D0264EC1F30D057255491C89B2998041
:102DE000C72900D99C8000682149884219D1D88818
:102DF000010416D41C491F4A891CC0F30D0509782B
:102E00005155401C80B2D880632800D9DC801879E5
:102E10001870512905D1D888572807D040F4804030
:102E2000D880F8BD41F480419980DCE710785728BC
:102E300002D15078042801D0DC80F8BD48F2570058
:102E4000D8800D486946006814F060FE009800289C
:102E5000F3D00A494FF080500860BFF34F8FBFF3A3
:102E60006F8FF8BD00100140300000205C0300208F
:102E700000480040680400200800002004ED00E045
:102E800090F83D30202B01D002207047A9B1A2B1AB
:102E900090F83C30012B12D001628284C284002160
:102EA0000164212280F83D2080F83C100068C16850
:102EB00041F08001C160002070470120704702206E
:102EC00070477047FEE7000070B504460D46114993
:102ED0002868884206D11048012C10D00022102109
:102EE000FEF7B4FD0D492868884212D181140C48C0
:102EF000012C09D0BDE870400022FEF7A7BD0122D9
:102F00001021FEF7A3FDEDE7BDE870400122FEF7BA
:102F10009DBD70BD003001400000024000380040FF
:102F20000004024070B5064631460020FFF7CCFF92
:102F30003146FF200DF064F84FF6FF7101EA0025DD
:102F40003146FF200DF05CF840EA050431460120CF
:102F5000FFF7BAFF34B1600702D540F6FF7070BDCD
:102F6000E00870BD02A000F08FFC204670BD00009C
:102F70006D617836363735C3BBD3D0CAFDBEDDB7F9
:102F8000B5BBD8A3ACC7EBBCECB2E96D6178363603
:102F90003735C1ACBDD3A1A30D0A0000F0B52DEDAE
:102FA000028B85B0074614216846FDF7E2F96E46AC
:102FB00000246D463846FFF7B5FF45F82400024669
:102FC00021461EA000F060FCC82014F0F9F8641C33
:102FD000052CEFDB0422002130460CF04DFD1CA037
:102FE000029900F051FC0298A0F57061FF3920D0E1
:102FF0000298FDF75CFA9FED1B1B53EC112BFDF7BC
:10300000E4F9FDF79EFA08EE100A18EE100AFDF733
:1030100085FA41EC100B15A053EC102B029900F02F
:1030200033FCBDEEC80A10EE100A05B0BDEC028BF1
:10303000F0BD1BA000F028FC0020F6E774686520B6
:103040006172725B25645D206973203A25640A0011
:10305000746865206172725B325D203D2025640AD0
:1030600000000000000000000000D03FD6D0D6B520
:10307000C2CBB2A8BAF3D4ADCABCCAFDBEDDCAC7C2
:10308000A3BA253034582CC2CBB2A8BAF3CEC2B6FC
:10309000C8CAC7A3BA25342E3266A1A30D0A000000
:1030A000CEB4BCECB2E2B5BDC8C8B5E7C5BCA3ACF4
:1030B000C7EBBCECB2E9A1A30D0A0000FEE7704724
:1030C0000020054AD1880B0405D5C8B2034B002166
:1030D00019541846D1807047300000206804002041
:1030E00010B50A4601460348FFF7CAFE0249002010
:1030F000087010BDCC040020300000207CB50446D0
:103100001348144D0068B0FBF5F04FF47A7568432E
:1031100001906068B0F5827F0DD10B4600920022CD
:103120008021204600F018F878B1606D40F0200052
:10313000606503207CBD019838B10198401E019064
:1031400020688068C0430006F5D500207CBD0000E3
:103150000000002000366E012DE9F84304460F46BA
:1031600091461E46089DFEF77FFC401B351AFEF770
:103170007BFC804626480068C0F3CB306843009053
:103180003AE0701C38D0FEF76FFCA0EB0800A842B4
:1031900003D215B1009858B32BE02068416821F0A4
:1031A000E00141606068B0F5827F0BD1A068B0F5A6
:1031B000004F02D0B0F5806F04D12068016821F083
:1031C00040010160A06AB0F5005F09D12068016884
:1031D00021F4005101602068016841F40051016050
:1031E000012050346070002020700320BDE8F88377
:1031F00000250098401E00902068806837EA000093
:1032000004D000204845BCD10020EFE70120F9E7B9
:103210000000002010B5FEF72DFC14F073FF01280C
:1032200003D0BDE8104014F0C3BA10BD02480168D5
:1032300041F470010160704788ED00E010B50A4C60
:103240002068C068C043C00709D1084800698047AA
:1032500021680020486221686420C862E06021681B
:103260006FF00100086110BD5C070020C400002061
:1032700070B515460E4B0D4A1A60596000249C60CB
:10328000D8601C611846FFF70AFB094860214830E6
:10329000016045608460014604224838FFF796FAD1
:1032A000BDE8704004210248FFF746BB00400140E2
:1032B000A80600202DE9F0410268264D264E274F32
:1032C000DFF89CC0274B4FF08048A84209D040450A
:1032D00007D0B04205D0B84203D0604501D0984233
:1032E00003D122F070044A682243A8421BD0404513
:1032F00019D0B04217D0B84215D0604513D09842CB
:1033000011D0194CA0420ED0184CA0420BD0184C32
:10331000A04208D0174CA04205D0174CA04202D0C2
:10332000164CA04203D122F44074CA6822434C696F
:1033300022F08002224302608A68C2620A688262C6
:10334000A84201D0984201D109690163012141617C
:10335000BDE8F0810000014000040040000800408A
:10336000000C0040000401400040014000440140C6
:103370000048014000180040001C004000200040B0
:1033800010B501F01F0101238B40046A9C430462C5
:10339000036A8A401343036210BD0000F0B5026A5D
:1033A00022F001020262026A4368846924F0700418
:1033B00024F003050C682C4322F002058A682A4396
:1033C0000E4E0F4FB04201D0B84205D122F0080591
:1033D000CA682A4322F00402B04201D0B84207D1A1
:1033E00023F4807323F400734D691D438B692B43D1
:1033F00043608461496841630262F0BD000001409E
:1034000000040140F0B5026A22F010020262036A71
:103410004268846924F4E04424F440740D6844EA6A
:10342000052423F020038D6843EA0513104D114E47
:10343000A84201D0B04206D123F08003CF6843EA0E
:10344000071323F04003A84201D0B04209D122F46F
:10345000806222F400624D6942EA85028D6942EA87
:10346000850242608461496881630362F0BD0000A7
:103470000000014000040140F0B5026A22F48072AD
:103480000262026A4368C46924F0700424F00305F0
:103490000C682C4322F400728D6842EA0522104D1C
:1034A000104EA84201D0B04206D122F40062CF688B
:1034B00042EA072222F48062A84201D0B04209D138
:1034C00023F4805323F400534D6943EA05138D69B7
:1034D00043EA05134360C4614968C1630262F0BDF9
:1034E000000001400004014030B5026A22F480521D
:1034F0000262046A4268C36923F4E04323F4407320
:103500000D6843EA052324F400548D6844EA053429
:10351000084DA84202D0084DA84204D122F48042AE
:103520004D6942EA85124260C361496801640462E0
:1035300030BD0000000001400004014001498863E3
:10354000704700000040014010B5806B0021C1852C
:10355000C184FFF760FA10BD0168CA6822F4907256
:10356000CA6001684A6922F001024A61016B0129BF
:1035700004D10168CA6822F01002CA60202180F8D4
:103580003E1000210163704710B50168CA6822F03F
:103590004002CA60202180F83D10FFF792FC002015
:1035A00010BD10B5044694F83E00222801D0022038
:1035B00010BDA1684FF48052914201D1206920B121
:1035C000A06A91421DD051B10BE0A06A2168496800
:1035D000C1F308010180A06A801CA06209E0216992
:1035E00079B12168496801F07F010170A06A401C2F
:1035F000A062E08D401E0004000CE08505D0002094
:1036000010BD216849680170F0E72068C16821F0A9
:103610002001C1602068C16821F48071C160206808
:10362000416921F001014161202084F83E00206BB6
:10363000012805D02046FFF7B3FB0020206310BD12
:103640002068C16821F01001C160A18D2046FFF7FC
:10365000E1F9F2E72DE9F041044620680169E268EA
:1036600021F4405111430161A1682069E2690143DD
:103670006069104301432068C26849F20C639A43B1
:103680000A43C26020684169A26921F44071114374
:10369000416133492068884202D03249884202D1D0
:1036A000FEF728FB01E0FEF715FBE169002319276F
:1036B00064253226B1F5004F28D061688B0F8A004F
:1036C000A0FB0701FCF7E6FD0146B0FBF5F07A42EE
:1036D000504301EB800006EB0010B0FBF5F000F06A
:1036E000F002B1FBF5F002EB0012B1FBF5F07B420A
:1036F000584301EB800006EB0010B0FBF5F02168A9
:1037000000F00F0010448860BDE8F08161684A183D
:10371000A0FB07015B41FCF7BDFD0146B0FBF5F0E6
:103720000201B1FBF5F06FF01803584301EB800084
:1037300006EBC000B0FBF5F000F0F80002EB400231
:10374000B1FBF5F0584301EB800006EBC000B0FB85
:10375000F5F0216800F0070010448860D4E700000D
:10376000001001400014014081628285C285002161
:103770000164222280F83E2080F83C100168CA686B
:1037800042F48072CA6001684A6942F001024A61EB
:103790000068C16841F02001C1600020704790F8C6
:1037A0003D10212901D0022070478168B1F5805F6A
:1037B00001D1016961B1016A4A1C0262026809789B
:1037C0005160C18C491E0904090CC1840AD013E060
:1037D000016A02680988C1F308015160016A891C05
:1037E0000162EEE70168CA6822F08002CA600068E0
:1037F000C16841F04001C1600020704770B50024ED
:103800000C4D0D48FFF70EF902E0641CAC4204D8E1
:103810000948FFF701F92028F7D1002402E0641CD1
:10382000AC4206D8012205490348FFF7A1FA002857
:10383000F5D170BDFFFF01002404002031000020FD
:1038400070B500240C4D0D48FFF7ECF802E0641C45
:10385000AC4204D80948FFF7DFF82028F7D100244C
:1038600002E0641CAC4206D8012205490348FFF778
:103870007FFA0028F5D170BDFFFF0100CC040020C5
:1038800032000020FEE700000FB4054B10B503A97D
:10389000044A029800F002F910BC5DF814FB000025
:1038A000616A00083C0000200FB4084B10B504A961
:1038B00002AA039800F0F2F8044602A9002000F0E2
:1038C00070FC204610BC5DF814FB0000A34100080A
:1038D0000907090E002804DB00F1E02080F800143D
:1038E000704700F00F0000F1E02080F8141D7047D1
:1038F000004870475803002002E008C8121F08C1A2
:10390000002AFAD170477047002001E001C1121F60
:10391000002AFBD1704700002DE9FF5F82B0002133
:10392000DDE90430020DDDF840B0034318D044F661
:103930001050A2F2FF3242431514119801281FD0F3
:10394000A5EB0B00401C5FEA000A4FF000064E4F4B
:10395000DFF83891B046504615D5CAF1000413E09F
:10396000119801244AA3012801D16FEA0B010298A2
:10397000119AC0E90031C0E9024206B0BDE8F09FEB
:10398000CBF10000DFE704460021404A491842EB32
:103990000450CDE9001012E0E00707D032463B4664
:1039A00040464946FCF711FD8046894632463B4673
:1039B00010461946FCF709FD06460F466410002C18
:1039C000EAD1DDE90401DDE90023BAF1000F06DAEE
:1039D000FCF7FBFC42464B46FCF7F7FC05E0FCF726
:1039E00074FF42464B46FCF770FF04460E46002229
:1039F000284BFCF7F1FF03D84FF0FF30014607E0FA
:103A00000022254B20463146FCF7B8FEFCF7CCFFE0
:103A1000102409E0002C0ADB0A220023FCF73AFC00
:103A2000039B30321A55641E50EA0102F2D1641C25
:103A3000039AC4F111031444119A012A03D00122FC
:103A400008430DD10AE0084304D000204FF0110BC9
:103A5000119072E7A3EB0B056D1E0DE05B4504DDD5
:103A60004FF0000205F1010504E003DA4FF0000217
:103A7000A5F10105002AECD002981199C0E90231A4
:103A8000C0E9004579E70000000014400000F03F65
:103A9000300000000000F0430000E03F2DE9FF4F40
:103AA00095B09A46884606460025EEE1252877D14E
:103AB00000242746F94A0121039400E0044316F844
:103AC000013F203B01FA03F01042F7D130782A2859
:103AD00011D06FF02F033078A0F13002092A16D8E8
:103AE000039A44F0020402EB820203EB4202104408
:103AF000761C0390EFE758F8042B0392002A03DAB0
:103B0000504244F40054039044F00204761C307890
:103B10002E2816D116F8010F44F004042A280DD0DF
:103B20006FF02F023078A0F13003092B09D807EB92
:103B3000870302EB4303C718761CF3E758F8047BAE
:103B4000761C30786C280FD006DC4C2817D06828FB
:103B50000DD06A2814D104E0742810D07A280FD12F
:103B60000DE044F400140AE044F4801401E044F44D
:103B700040147278824202D104F58014761C761CBF
:103B8000307866280BD013DC582877D009DC002861
:103B900075D04528F6D04628F4D047281AD193E1AD
:103BA00018E0632835D0642879D0652812D18BE1DC
:103BB000702873D008DC6728F1D069286FD06E2890
:103BC0000DD06F2806D1ACE073282CD0752874D0A6
:103BD000782853D05246179990476D1C54E1C4F38E
:103BE0000250022809D003280DD0D8F8001004286C
:103BF0000DD00D6008F1040846E1D8F80010EA176E
:103C0000C1E90052F6E7D8F800100D80F2E70D7018
:103C1000F0E718F8041B8DF8001000208DF8010063
:103C2000EB46012003E058F804BB4FF0FF3061077A
:103C30004FF0000102D40DE009F101018946B942BB
:103C40000FDA8145F8DB1BF809100029F4D108E0F0
:103C500009F1010189468142FADB1BF809100029AC
:103C6000F6D103985346A0EB090721463846179A28
:103C700000F080FA284400EB090507E044E008E181
:103C80000DE01BF8010B524617999047B9F1010955
:103C9000F7D2534621463846179AF2E039E00A2116
:103CA000C4F302524FF0000B0091022A06D058F8DC
:103CB000040BC117032A09D00AE023E008F107002A
:103CC00020F00702F2E80201904605E000B2C117B9
:103CD000042A01D140B2C117002906DA0A460021A0
:103CE000404261EB02012D2202E0220504D52B2285
:103CF0008DF80420012203E0E20701D02022F7E73B
:103D0000914657E00A2100E010214FF0000B00918E
:103D10000BE010214FF0000B44F004040827009141
:103D200003E008204FF0000B0090C4F30252022A77
:103D300005D058F8040B0021032A08D008E008F148
:103D4000070020F00702F2E80201904603E080B28B
:103D5000042A00D1C0B24FF0000922072AD53278D8
:103D6000702A07D0DDF800C08CF0100C5CEA0B0C58
:103D700005D00EE040228DF80420012208E050EA30
:103D8000010306D030238DF804308DF8052002227F
:103D90009146009B83F0080353EA0B030AD150EAD3
:103DA000010201D1620705D530228DF804204FF0C1
:103DB00001097F1E3278582A04D039A20C920CAA2D
:103DC00002920BE03BA2F9E75B46009AFCF762FA2D
:103DD0000C9B9B5C029A521E0292137050EA0102E5
:103DE000F2D1029804A9081A00F1200B600702D54D
:103DF00024F4803400E001275F4502DDA7EB0B00CF
:103E000000E0002000EB0B01009003984944401AA9
:103E10000390E00306D453462146179A039800F016
:103E2000A9F90544002706E001A85246C05D17998C
:103E300090476D1C7F1C4F45F6DBE0030CD55346C5
:103E40002146179A039800F095F9054404E03020C4
:103E50005246179990476D1C0099481E0090002902
:103E6000F5DC08E00298029952460078491C02915C
:103E7000179990476D1CBBF10001ABF1010BF1DC10
:103E80005BE100F065F90544761C307800287FF48A
:103E90000DAE19B02846BDE8F08F000009280100DA
:103EA00030313233343536373839616263646566B0
:103EB0000000000030313233343536373839414272
:103EC0004344454600000000600700D4062708F17F
:103ED000070020F00700F0E80223804603F0004CC2
:103EE0005FEA0C0001D097A009E0200501D596A05B
:103EF00005E0E00701D095A001E0AFF24C0013907F
:103F0000307823F0004365280CD006DC452809D022
:103F100046281DD047287FD13BE0662818D0672867
:103F20007AD136E00021112F01DB112000E0781C4E
:103F3000CDE9000104A90CA8FFF7EEFCDDE90D01B5
:103F40000C9A4FF0000B07F10109109200914EE01E
:103F50004FF000400097CDE9011004A90CA8FFF72D
:103F6000DBFCDDE90D020C9B0F994FF0000B914635
:103F70001093009211B9791C00EB0109B7EB09000D
:103F800003D4C0F1FF3B07F10109A9EB0700019041
:103F900042E0012F00DA01270021112F01DD11205D
:103FA00000E03846CDE9000104A90CA8FFF7B4FCF5
:103FB000DDE90D010C9A00914FF0000BB94610920B
:103FC00021070FD4009A4A4503DA914601E0A9F18E
:103FD0000109B9F1010F05DD109AA9F10101515C48
:103FE0003029F4D0B84202DA10F1040F03DA0121CB
:103FF000CDE9011010E0002803DC8344A9EB0001A7
:1040000002E0411C494500DD8946A0EB0B00401C45
:1040100001904FF000400290200705D401984845D8
:1040200002DB4FF0FF30019000208DF84B0002982A
:104030000DF14B07B0F1004F25D002200C902B2042
:104040000D90029800280CDA404202902D200D902D
:1040500007E00A210298FCF790FA3031029007F845
:10406000011D0C99481E0C900029F2DC02980028D2
:10407000EFD1791E0D980870307800F0200040F0E4
:10408000450007F8020D11A8C01BC01D029013982F
:10409000007800B1012000EB0901019801EBE0710B
:1040A000029801440398401A401E0390E00306D48E
:1040B00053462146179A039800F05CF8054413987C
:1040C000007818B15246179990476D1CE00323D52C
:1040D00053462146179A039800F04CF805441BE01C
:1040E000BBF1000F07DB0098584504DD10981799C5
:1040F00010F80B0001E017993020524690470198C4
:104100000BF1010B401E05F10105019004D12E2099
:104110005246179990476D1CB9F10001A9F10109A8
:10412000DEDC05E017F8010B5246179990476D1C2D
:104130000299481E02900029F4DC53462146179A42
:1041400003989EE62D0000002B00000020000000D8
:104150002DE9F041044600251E461746880404D484
:1041600005E039462020B0476D1C641EF9D528466D
:10417000BDE8F0812DE9F041044600251E46904639
:10418000C80301D5302700E02027880404D505E0C6
:1041900041463846B0476D1C641EF9D52846BDE837
:1041A000F0810A68531C0B60107070472DE9F047CE
:1041B0000F4604466FF00505002C43D014F1140F90
:1041C00042D0616900293FD000F114066FF00C095C
:1041D000002F3DD012B132A0FFF756FB2078A16A24
:1041E00009F0C2F805464FF0FF387DB36F602846EE
:1041F0000BF088FE294630460CF020FA38B36C6884
:10420000002120460CF0D6FD002120460FF03AFA9E
:10421000002120460FF00CFD0022114620460EF032
:104220006BFC002120460DF0E5F800246C6005F1E0
:1042300010000CF0B7F92C61284609F0B5F940469A
:10424000BDE8F0872846FBE72846F9E710E01FE0C5
:10425000484607F013FC014630460CF0EFF928B948
:10426000A36A1BB100221146204698472846E7E77B
:10427000484607F003FC014630460CF0DFF928B948
:10428000A36A1BB100221146204698474046D7E753
:10429000A36A1BB100221146204698470020CFE7B1
:1042A000657870656374206E6577706362203D3D4C
:1042B000204E554C4C206F7220657272203D3D207F
:1042C0004552525F4F4B00002DE9F04106460F4624
:1042D0000024184D0CF0F6F805EB0411096841B103
:1042E0000CF03AF9641C042CF4DB4FF0FF30BDE80D
:1042F000F08105EB04152E600CF02EF94FF000084C
:10430000C5F80480A87B10B10BA0FFF7BDFAA5F893
:10431000088030780121B1EB101F04D10FB10120CA
:1043200002E0002000E001206881A5F80C80204612
:10433000DDE7000040870020736F636B6574735B7B
:10434000695D2E73656C6563745F77616974696E0E
:1043500067203D3D20300000F922A72140F2CF70B8
:10436000FEF786FF304C314E4FF0FF354FF4FA77B1
:104370002946206813F026FD012851D12CA0FFF713
:1043800083FADFF8CC80B8F8001032A0FFF77CFA8F
:10439000B8F8000028B1002220213046FDF756FB76
:1043A00004E0012220213046FDF750FBDFF8C080F9
:1043B000B8F800102FA0FFF767FAB8F8000028B18E
:1043C000002204213046FDF741FB04E001220421D4
:1043D0003046FDF73BFBDFF8B480B8F800102CA0A6
:1043E000FFF752FAB8F8000028B100220821304641
:1043F000FDF72CFB04E0012208213046FDF726FBE7
:10440000DFF8A880B8F8001029A0FFF73DFAB8F847
:104410000000F92100EB800001EB4000FFF78EF86F
:10442000384612F0CDFEA3E7040000200010024041
:10443000BDD3CAD5B6FED6B5D0C5BAC5C1BF6770A3
:10444000696F53656D6170686F72650A00000000E6
:1044500062000020456E67696E655F72656C617908
:1044600020696E207461736B2025640A00000000CF
:10447000640000204D6F746F725F72656C6179200B
:10448000696E207461736B2025640A006600002049
:104490007265637469666965725F72656C617920C3
:1044A000696E207461736B2025640A00600000202F
:1044B00076616C76655F736572766F20696E2074C5
:1044C00061736B2025640A0010B504460420FEF7D2
:1044D000EFF8084804604FF47A7044434FF0E0214D
:1044E000086940F0020008614C61086940F0010071
:1044F000086110BD2C00002070B5054600244FF463
:104500007A7603E0304600F005F8641CAC42F9D33B
:1045100070BD000070B500214FF0E0256C690A4ABB
:1045200012685043AB69AA699A42FCD003D2A3EB4C
:104530000203194403E0A4EB020633441944134672
:104540008142F0D370BD00002C00002000280BD069
:10455000426A002A0BD05379082B08D10968D26926
:10456000914204D100F0C6B901A0FFF78DB97047A0
:104570006E6574696620213D204E554C4C0000004C
:104580002DE9FC410546002D18D06C6ADCB10027EE
:104590006782A36A4FF03C02581C4FF480384FF0FA
:1045A000010C4FF6FF7614D01E33B3FBF2F04045FA
:1045B00000D3304683B2A3824BB10AE028A0FFF7B4
:1045C00063F9BDE8FC812DA0FFF75EF9F9E7A4F8D7
:1045D00014C0E36A581C0CD01E33B3FBF2F1414502
:1045E00000D331468BB263810BB9A4F80AC060894D
:1045F000E081236B581C0CD01E33B3FBF2F2424512
:1046000000D3324693B2A3810BB9A4F80CC0A089A1
:1046100020826089A389984201D303B16781E07940
:1046200010B1206A01900CE0237F7F2B02D8FF207D
:10463000019006E0C02B03D36FF07F40019000E0B3
:104640000196606A00900A21204601F029F86B4625
:1046500001AA04F11C01284609F0EAFCB1E70000B8
:10466000646863705F62696E643A206E657469663F
:1046700020213D204E554C4C0000000064686370C2
:104680005F62696E643A206468637020213D204E49
:10469000554C4C0070B505466C6A0821204600F068
:1046A000FFFF002204F11C01284601F019FEA07949
:1046B000FF2801D2401CA0714FF4FA7040F2E7319C
:1046C000B1FBF0F0208170BD10B51748046828E0F8
:1046D000616A09B34879F8B1888A68B1488A401C90
:1046E00080B248828A8A904206D1204600F04EFE6F
:1046F000204600F0DDFF13E0088A18B1421E0A824E
:10470000012806D0C88938B1421ECA81012804D0C8
:1047100006E0204601F058F802E0204601F03FF89C
:104720002468002CD4D110BD480200202DE9F047A8
:1047300007460C4616469946002F17D0002C1BD072
:104740004FF49A7A4FF420725146362009F080FDDA
:1047500080465FEA080014D0B8F80A00504502D23B
:104760002EA0FFF791F8032E10D10CE03BA0FFF72D
:104770008BF80020BDE8F08740A0FFF785F8002007
:10478000F8E70020F6E76079032807D1A079434DC8
:1047900010B9FBF7B5FDA860A8682060D8F80450F0
:1047A00051462846FBF7E5FD01202870687097F810
:1047B0003000A870206806F053FB6860082E0AD00D
:1047C000042E08D0072E06D0032E06D160790528C6
:1047D00001D0042801D17868E8600024381929192B
:1047E00090F82A000877641CA4B2062CF6D32C4853
:1047F000C5F8EC0005F1F001012335220C4600203C
:1048000000F03CFA3246214600F050FAB9F1000FB0
:1048100001D0A9F800004046ACE70000646863706E
:104820005F6372656174655F6D73673A2063686585
:10483000636B20746861742066697273742070629F
:1048400075662063616E20686F6C64207374727586
:10485000637420646863705F6D736700646863707D
:104860005F6372656174655F6D73673A206E65742E
:10487000696620213D204E554C4C000064686370F1
:104880005F6372656174655F6D73673A2064686326
:104890007020213D204E554C4C000000A802002005
:1048A0006382536310B5094C2078002802D108A018
:1048B000FEF7EAFF2078401EC0B22070002804D125
:1048C000E06811F007F80020E06010BDA8020020A9
:1048D000646863705F7063625F726566636F756E54
:1048E0007428293A20726566636F756E742065724C
:1048F000726F7200FEB50646746A0C21204600F005
:10490000CFFE02AB042221463046FFF70FFF0546DB
:10491000280026D069680423F03132220F46BDF802
:10492000080000F0ABF90290E06906F099FA02463F
:104930003946BDF8080000F0E3F902902A463946EE
:1049400000F046FA0F484323CDE900600F480E4AB5
:104950002946C06811F0DAF80646284609F0A6FF95
:1049600001E04FF0FF36A079FF2801D2401CA07172
:1049700042F603104FF4FA71B0FBF1F0208130469B
:10498000FEBD000004B9010808B90108A802002012
:104990002DE9FE4F07467D6A4FF000090020E861CF
:1049A0000621284600F07CFE02AB0122294638464B
:1049B000FFF7BCFE0646300037D071680223F031A5
:1049C00039228A46BDF8080000F058F902903A8D65
:1049D000514600F0CDF9029004233722514600F0F1
:1049E0004DF902900024DFF880805146BDF80800A0
:1049F00018F8042000F05AF90290641CE4B2042C68
:104A0000F3D332465146BDF8080000F0E1F91748EB
:104A10004323CDE900701448154A401E3146C06852
:104A200011F074F8304609F041FFA879FF2801D24F
:104A3000401CA871A979062902D20120884000E013
:104A40003C2000EB4001C1EBC0104FF6FF7101EAC2
:104A5000C00000F2F3104FF4FA71B0FBF1F02881BE
:104A60004846BDE8FE8F0000A902002004B90108F5
:104A700008B9010870B50B48046800250EE0616AAA
:104A800059B10889012803D9A0F10100088104E087
:104A900003D10D81204600F0AEFE2468002CEED13B
:104AA00070BD000048020020F8B5446A002222626E
:104AB0006262214EA6F12805F078002801D0E8684E
:104AC000A062307910B12869E06202E0A06A400873
:104AD000E062707910B16869206304E0A06AC0EBFD
:104AE000C000C00820630869E061B07930B1A869EE
:104AF00006F0B6F920620120E07100E0E271F07981
:104B000018B1E86906F0ACF9606200240CE004F129
:104B1000080055F8200006F0A3F9009069462046E9
:104B200001F042F8641CE4B2022C03D23019007A7E
:104B30000028ECD1F8BD0000187B012010B5044618
:104B4000606A0C2100F0ACFD054B20461A46114668
:104B500009F06EFA2046BDE81040FFF719BF0000CB
:104B600004B9010870B505460E466C6A094880789C
:104B700000280ED00020208106482838806806F0E2
:104B80006FF9A0613069E0612846BDE8704000F02F
:104B9000C9BC70BD187B012010B5134C20780028CB
:104BA0001AD1E06810B111A0FEF76EFE10F04AFEB7
:104BB000E060B0B1417A41F02001417244221549D0
:104BC00010F038FC43221349E06810F091FC0022F9
:104BD0001149E06810F06AFE2078401C2070002027
:104BE00010BD4FF0FF3010BDA80200206468637054
:104BF0005F696E635F7063625F726566636F756E37
:104C00007428293A206D656D6F7279206C65616B2F
:104C10000000000004B901089552000870B505466F
:104C20006C6A002C1ED061790026042914D004DCA3
:104C3000002917D0032904D10EE005290CD00A2938
:104C40000AD00C2902D908A0FEF71EFEA67128463C
:104C5000BDE87040FFF79CBEA6712846BDE87040D5
:104C600000F09EBA70BD0000696E76616C696420C8
:104C7000646863702D3E7374617465002DE9F041C2
:104C800004460E4690461F46E019801C442802D96F
:104C90000548FEF7F9FD601C85B206F80480681C23
:104CA00080B27755BDE8F0810CBC010870B50446B0
:104CB0000E461546442C02D303A0FEF7E5FD601C0A
:104CC00080B2355570BD0000646863705F6F7074AA
:104CD000696F6E5F627974653A206F7074696F6E88
:104CE000735F6F75745F6C656E203C204448435061
:104CF0005F4F5054494F4E535F4C454E00000000EB
:104D000070B506460D461446301D442802D909A048
:104D1000FEF7BAFD220E701C81B2AA55220C481C67
:104D200080B26A54220A411C89B22A54481C80B2BB
:104D30006C5470BD646863705F6F7074696F6E5F90
:104D40006C6F6E673A206F7074696F6E735F6F750A
:104D5000745F6C656E202B2034203C3D204448431A
:104D6000505F4F5054494F4E535F4C454E0000002A
:104D700070B504460E461546A01C442802D905A06D
:104D8000FEF782FD290A601C83B23155581C80B29F
:104D9000F55470BD646863705F6F7074696F6E5FA7
:104DA00073686F72743A206F7074696F6E735F6F9F
:104DB00075745F6C656E202B2032203C3D2044488A
:104DC00043505F4F5054494F4E535F4C454E000087
:104DD00030B404461046FF25621C93B20D550024E2
:104DE00003E01D465B1C9BB24C55442B01D39D0731
:104DF00001D0442BF5D3F03330BC99B209F012BE88
:104E00002DE9F34F85B04FF0000B002003900A21ED
:104E1000A848FBF7AEFA059840892C2804D26FF019
:104E2000010007B0BDE8F08FF0270598B0F80890B2
:104E3000059E049706E0391A8FB2A9EB00001FFA0D
:104E400080F9366816B17089B842F4D916B1D6F82F
:104E500004A0F6E06FF00100E3E74FF0FF34B81C68
:104E60001FFA80F8B84501D26000DAE77389781C30
:104E70000246834203D90AEB0700407805E0306818
:104E800010B14068007800E000200546342949D080
:104E90000BDC032925D003DCC9B101290DD119E0B0
:104EA000062926D0332908D134E0352947D03629C0
:104EB0004CD03A2951D03B2956D0002579B33844FB
:104EC000801CB0F5803F58D36FF00100A9E70020A7
:104ED0000546F3E7042802D06FF00500A1E7062499
:104EE000ECE70425042802D26FF0050099E70724B7
:104EF000E4E7830702D06FF0050092E7082801D2AB
:104F0000054600E00825A84202D26FF0050088E7B8
:104F10000824D3E7042803D06FF0050081E72AE0D6
:104F20000324CBE7012802D06FF0050079E7049B4A
:104F3000F02B02D06FF0050073E70024BEE70128D4
:104F400002D06FF005006CE70124B7E7042802D017
:104F50006FF0050065E70224B0E7042802D06FF087
:104F600005005EE70424A9E7042802D06FF00500DD
:104F700057E70524A2E797B254E087B2BDB30020FB
:104F800002900A2C02D34CA0FEF77EFC4948005D3B
:104F900068BB042D01D2284600E00420019043465E
:104FA00002A93046019A09F02FFB0146019881427F
:104FB00002D06FF0010034E7042D1CD9A80702D0FD
:104FC0006FF005002DE73B4901200855029805F0D8
:104FD00047FF3849283941F824002D1FEDB208F168
:104FE000040080B2404503D26FF0010019E719E0D8
:104FF0008046641CC5E7042D04D0012D07D06FF056
:1050000005000EE7029805F02BFF029002E09DF8E4
:10501000080002902749012008552648029928389F
:1050200040F824107089B8420BD8391A8FB2A9EB16
:1050300000001FFA80F94F451DD23668C6B1D6F878
:1050400004A036B14F4504D21AF80710FF297FF4A7
:1050500004AF184A1078D0B1A2F1280000680021EE
:10506000117001280AD002280BD003280CD00EE0C2
:105070006FF00500D5E66FF00100D2E64FF0010BAE
:1050800005E00120039002E0012003908346BBF17C
:10509000000F05D04FF0000B6C274FF0EC09C7E66E
:1050A000039828B1002003902C274FF06C09BFE62D
:1050B0000020B6E6187B0120636865636B20646599
:1050C000636F64655F696478000000002DE9FC4748
:1050D0008046D8F824500421284600F0E1FA01ABBC
:1050E000032229464046FFF721FB0746380037D008
:1050F00079680223F03139228946BDF80400FFF7B0
:10510000BDFD0190B8F828204946FFF731FE019017
:10511000042337224946FFF7B1FD019000241E4EBB
:105120004946BDF80400325DFFF7C0FD0190641CE4
:10513000E4B2042CF4D33A464946BDF80400FFF724
:1051400047FE1548CDF80080401E4323134A3946D8
:10515000C06810F06DFC0446384609F0A7FB01E07A
:105160004FF0FF34A879FF2801D2401CA871A8791C
:105170000A2803D24FF47A71484301E042F21070DA
:1051800080B200F2F3104FF4FA71B0FBF1F0288115
:105190002046BDE8FC870000A902002008B90108EC
:1051A0002DE9FC478046D8F824500321284600F01A
:1051B00077FA01AB032229464046FFF7B7FA0746C4
:1051C000380047D079680223F03139228946BDF88A
:1051D0000400FFF753FD01904FF410724946FFF7AA
:1051E000C7FD0190042332224946FFF747FD019095
:1051F000E86905F035FE02464946BDF80400FFF7B0
:105200007FFD0190042337224946FFF737FD0190C7
:1052100000241E4E4946BDF80400325DFFF746FDEE
:105220000190641CE4B2042CF4D33A464946BDF81C
:105230000400FFF7CDFD1548CDF80080401E432344
:10524000134A3946C06810F0F3FB0446384609F0AB
:105250002DFB01E04FF0FF34A879FF2801D2401C5C
:10526000A871A8790A2803D24FF47A71484301E063
:1052700042F2107080B200F2F3104FF4FA71B0FBFA
:10528000F1F028812046BDE8FC870000A90200203B
:1052900008B901082DE9F04116463A4845686C6A9C
:1052A0007168002C69D02079002866D070892C287C
:1052B00063D30878022860D1002095F8302008E0F8
:1052C0002B180F1893F82A303F7FBB4255D1401C52
:1052D000C0B2824201D90628F2D3486805F0C0FD69
:1052E0002168884249D121463046FFF789FD00BB3D
:1052F00025484078E8B172682348283800790528A5
:1053000002D0062822D02AE06079012806D003289E
:1053100014D0042812D0052810D02EE011462846BB
:10532000FFF7C2FB95F83100000703D52846FFF7C9
:10533000B1F922E02846FFF723F91EE0114628467E
:10534000FFF7B2FB2846FFF71BF916E06179032946
:1053500008D0012906D0042904D0052902D002284A
:1053600004D00AE02846FFF7E9FB06E0607906284A
:1053700003D111462846FFF7F5FB3046BDE8F04162
:1053800009F094BA008C0020187B01202DE9FE431F
:1053900007467C6A002C56D06079002853D0A0695B
:1053A00002900025A561E561256265622563E562DD
:1053B000A562A58265822582E581384600F0DEF986
:1053C000B0B30021204600F06BF901AB0722214663
:1053D0003846FFF7ABF90646300022D07168042347
:1053E000F03136228846BDF80400FFF747FC0190F3
:1053F000029805F035FD02464146BDF80400FFF76E
:105400007FFC019032464146FFF7E2FC0F480097CF
:10541000432302AA3146C06810F00AFB304609F067
:1054200045FA0B4B38461A46114608F001FE04E0D7
:10543000FFE70021204600F033F92079002802D050
:10544000FFF730FA2571BDE8FE830000A8020020B6
:1054500004B901082DE9FC478046D8F824500521FD
:10546000284600F01DF901AB032229464046FFF70C
:105470005DF90746380038D079680223F0313922C7
:105480008946BDF80400FFF7F9FB0190B8F8282021
:105490004946FFF76DFC0190042337224946FFF788
:1054A000EDFB019000241E4E4946BDF80400325D1C
:1054B000FFF7FCFB0190641CE4B2042CF4D33A46E1
:1054C0004946BDF80400FFF783FC1548CDF800807D
:1054D000401E432305F118023946C06810F0A8FAAF
:1054E0000446384609F0E2F901E04FF0FF34A879AC
:1054F000FF2801D2401CA871A8790A2803D24FF4D2
:10550000FA61484301E044F6206080B200F2F310F3
:105510004FF4FA71B0FBF1F028812046BDE8FC871A
:10552000A90200202DE9FE430646002E69D0756AC7
:10553000002D6DD00121284600F0B2F802AB032205
:1055400029463046FFF7F2F880465FEA080065D04A
:10555000D8F804100223F03139228946BDF808003A
:10556000FFF78CFB0290328D4946FFF701FC029059
:10557000042332224946FFF781FB0290E86905F0D7
:105580006FFC02464946BDF80800FFF7B9FB0290E0
:10559000042336224946FFF771FB0290A86905F003
:1055A0005FFC02464946BDF80800FFF7A9FB0290E0
:1055B000042337224946FFF761FB02900024274F5E
:1055C0004946BDF808003A5DFFF770FB0290641C85
:1055D000E4B2042CF4D342464946BDF80800FFF774
:1055E000F7FB1F484323CDE900601C481D4A401EBD
:1055F0004146C06810F08AFA0446404609F056F960
:105600000EE019A0FEF740F96FF00F00BDE8FE8331
:105610001CA0FEF739F96FF00500F7E74FF0FF34F3
:10562000A879FF2801D2401CA871A979062902D2C5
:105630000120884000E03C2000EB4001C1EBC0109D
:105640004FF6FF7101EAC00000F2F3104FF4FA7157
:10565000B0FBF1F028812046D8E70000A902002025
:1056600004B9010808B90108646863705F73656C68
:105670006563743A206E6574696620213D204E553D
:105680004C4C0000646863705F73656C6563743ACA
:10569000206468637020213D204E554C4C00000072
:1056A00042798A4203D041710021817101817047A2
:1056B00070B505466FF00F04002D0CD095F8310041
:1056C000C0070DD06C6A288D4FF0FF36B0F5107F03
:1056D0000BD2304670BD1BA0FEF7D6F8204670BD39
:1056E0001CA0FEF7D1F8204670BD64B1207908B146
:1056F000FFF7D8F834212046FAF73BFEFFF74CFAC3
:1057000050B1304670BD342007F064FA04460CB145
:105710006C62EFE7304670BD0120207195F83100D2
:10572000400705D402212046FFF7BAFF002070BDD4
:105730002846FFF72DF90028F9D02846FFF726FE66
:10574000304670BD6E6574696620213D204E554C13
:105750004C0000006E65746966206973206E6F747A
:105760002075702C206F6C64207374796C652070C8
:105770006F72743F00000000FFF708BE00280CD0D5
:10578000406A50B140790A2805D0052803D0042882
:1057900001D000207047012070470020704710B5ED
:1057A000446A6179012903D00A2901D005290AD167
:1057B000FFF750FEA089618A401A022803DB00EB44
:1057C000D0704008E08110BD10B5446A61790129AC
:1057D00005D00A2903D0052901D004290AD1FFF7F1
:1057E00075FCA08A618A401A022803DB00EBD070A6
:1057F0004008208210BD10B50446616A4A790C2A1F
:105800000FD0062A0DD0012A10D0082A1ED0032A54
:105810002ED18879022826D22046BDE81040FFF715
:10582000BFBC2046BDE81040FFF7B2B88879052814
:1058300004D82046BDE81040FFF774BE2046FFF7AD
:10584000A5FD2046BDE81040FFF732BF887901284A
:1058500004D82046BDE81040FEF71CBF2046BDE836
:105860001040FEF78DBE2046BDE81040FFF790B80F
:1058700010BD000001460020002909D0C97A491C4A
:10588000022905D2034A52F82110002900D0012034
:1058900070470000F40100202DE9F05F07468B46B9
:1058A0000025DFF8808007EB0710A8F5886AA94675
:1058B0000AEB001405EB450658F826305BB108EBFF
:1058C0008600017AB94206D1426804F110005946B7
:1058D000984748F826906D1CEDB2042DEAD30021BC
:1058E0000425B9420CD001EB01100AEB0010827ABA
:1058F000022A05D1C07BE27B904201D1E57303E02F
:10590000491CC9B20429ECD3E07B042808D2064E16
:1059100056F820000FF0DEFFE07B46F82090E5739C
:10592000BDE8F09FD08B00208087002010B50024B8
:10593000204600F005F8641CE4B2042CF8D310BD36
:105940002DE9F0410546284905EB051001EB00144F
:10595000042D02D325A0FDF797FFA07A00283AD0A6
:1059600000260127012808D0022813D0032834D0AC
:10597000BDE8F04124A0FDF787BF00F055F8208175
:105980000220A072E672277366732846BDE8F041D4
:1059900000F064B8207B401E10F0FF0020731AD185
:1059A000607B401CC0B26073042805D02073284679
:1059B000BDE8F04100F052B82046FFF75BFF28B188
:1059C000E07A401CE07227736673F0E700212846F6
:1059D000FFF762FFA672BDE8F081206810B1401E9B
:1059E0002060F8D1A672F6E790870020617272619C
:1059F0007920696E646578206F7574206F66206207
:105A00006F756E6473000000756E6B6E6F776E203D
:105A1000646E735F7461626C6520656E7472792068
:105A200073746174653A000010B50A4CFAF768FCAB
:105A300080B2002101EB011204EB0212937A022BD7
:105A400002D112898242F1D0491CC9B20429F1D392
:105A500010BD000090870020704700002DE9FF5F17
:105A60000446494904EB041001EB0015E87A0228CA
:105A700002D346A0FDF708FFEA7A4A49002651F80A
:105A8000220048B305F110000446FAF77DFC1230FD
:105A900081B24FF42072362008F0DAFB82465FEACA
:105AA0000A006CD0019602960396288905F0E4F965
:105AB000ADF8040001208DF806004FF4807BADF8AE
:105AC00008B00C2201A9504609F072F8641E0C2699
:105AD000641C274600220BE000212046FFF7DCFE75
